{
  "contractName": "Vote",
  "abi": [
    {
      "inputs": [
        {
          "components": [
            {
              "internalType": "string",
              "name": "title",
              "type": "string"
            },
            {
              "internalType": "string",
              "name": "description",
              "type": "string"
            },
            {
              "internalType": "uint8",
              "name": "voteType",
              "type": "uint8"
            },
            {
              "internalType": "string",
              "name": "imagePath",
              "type": "string"
            },
            {
              "internalType": "bool",
              "name": "bImageExist",
              "type": "bool"
            },
            {
              "internalType": "bool",
              "name": "bShowDetail",
              "type": "bool"
            },
            {
              "internalType": "uint256",
              "name": "createdAt",
              "type": "uint256"
            },
            {
              "internalType": "uint256",
              "name": "endedAt",
              "type": "uint256"
            },
            {
              "components": [
                {
                  "internalType": "string",
                  "name": "title",
                  "type": "string"
                },
                {
                  "internalType": "string",
                  "name": "description",
                  "type": "string"
                },
                {
                  "internalType": "string",
                  "name": "imagePath",
                  "type": "string"
                },
                {
                  "internalType": "uint256",
                  "name": "count",
                  "type": "uint256"
                }
              ],
              "internalType": "struct MyType.Item[]",
              "name": "items",
              "type": "tuple[]"
            }
          ],
          "internalType": "struct MyType.Data",
          "name": "_data",
          "type": "tuple"
        }
      ],
      "stateMutability": "nonpayable",
      "type": "constructor"
    },
    {
      "anonymous": false,
      "inputs": [
        {
          "indexed": true,
          "internalType": "address",
          "name": "previousOwner",
          "type": "address"
        },
        {
          "indexed": true,
          "internalType": "address",
          "name": "newOwner",
          "type": "address"
        }
      ],
      "name": "OwnershipTransferred",
      "type": "event"
    },
    {
      "anonymous": false,
      "inputs": [
        {
          "components": [
            {
              "internalType": "string",
              "name": "title",
              "type": "string"
            },
            {
              "internalType": "string",
              "name": "description",
              "type": "string"
            },
            {
              "internalType": "uint8",
              "name": "voteType",
              "type": "uint8"
            },
            {
              "internalType": "string",
              "name": "imagePath",
              "type": "string"
            },
            {
              "internalType": "bool",
              "name": "bImageExist",
              "type": "bool"
            },
            {
              "internalType": "bool",
              "name": "bShowDetail",
              "type": "bool"
            },
            {
              "internalType": "uint256",
              "name": "createdAt",
              "type": "uint256"
            },
            {
              "internalType": "uint256",
              "name": "endedAt",
              "type": "uint256"
            },
            {
              "components": [
                {
                  "internalType": "string",
                  "name": "title",
                  "type": "string"
                },
                {
                  "internalType": "string",
                  "name": "description",
                  "type": "string"
                },
                {
                  "internalType": "string",
                  "name": "imagePath",
                  "type": "string"
                },
                {
                  "internalType": "uint256",
                  "name": "count",
                  "type": "uint256"
                }
              ],
              "internalType": "struct MyType.Item[]",
              "name": "items",
              "type": "tuple[]"
            }
          ],
          "indexed": false,
          "internalType": "struct MyType.Data",
          "name": "",
          "type": "tuple"
        }
      ],
      "name": "VoteSuccess",
      "type": "event"
    },
    {
      "inputs": [],
      "name": "owner",
      "outputs": [
        {
          "internalType": "address",
          "name": "",
          "type": "address"
        }
      ],
      "stateMutability": "view",
      "type": "function",
      "constant": true
    },
    {
      "inputs": [
        {
          "internalType": "address",
          "name": "newOwner",
          "type": "address"
        }
      ],
      "name": "transferOwnership",
      "outputs": [],
      "stateMutability": "nonpayable",
      "type": "function"
    },
    {
      "inputs": [
        {
          "internalType": "uint256",
          "name": "itemId",
          "type": "uint256"
        },
        {
          "internalType": "address",
          "name": "_from",
          "type": "address"
        }
      ],
      "name": "voteTo",
      "outputs": [],
      "stateMutability": "nonpayable",
      "type": "function"
    },
    {
      "inputs": [],
      "name": "isVoteEnd",
      "outputs": [
        {
          "internalType": "bool",
          "name": "",
          "type": "bool"
        }
      ],
      "stateMutability": "view",
      "type": "function",
      "constant": true
    },
    {
      "inputs": [
        {
          "internalType": "address",
          "name": "_from",
          "type": "address"
        }
      ],
      "name": "isVote",
      "outputs": [
        {
          "internalType": "bool",
          "name": "",
          "type": "bool"
        }
      ],
      "stateMutability": "view",
      "type": "function",
      "constant": true
    },
    {
      "inputs": [],
      "name": "getVote",
      "outputs": [
        {
          "components": [
            {
              "internalType": "string",
              "name": "title",
              "type": "string"
            },
            {
              "internalType": "string",
              "name": "description",
              "type": "string"
            },
            {
              "internalType": "uint8",
              "name": "voteType",
              "type": "uint8"
            },
            {
              "internalType": "string",
              "name": "imagePath",
              "type": "string"
            },
            {
              "internalType": "bool",
              "name": "bImageExist",
              "type": "bool"
            },
            {
              "internalType": "bool",
              "name": "bShowDetail",
              "type": "bool"
            },
            {
              "internalType": "uint256",
              "name": "createdAt",
              "type": "uint256"
            },
            {
              "internalType": "uint256",
              "name": "endedAt",
              "type": "uint256"
            },
            {
              "components": [
                {
                  "internalType": "string",
                  "name": "title",
                  "type": "string"
                },
                {
                  "internalType": "string",
                  "name": "description",
                  "type": "string"
                },
                {
                  "internalType": "string",
                  "name": "imagePath",
                  "type": "string"
                },
                {
                  "internalType": "uint256",
                  "name": "count",
                  "type": "uint256"
                }
              ],
              "internalType": "struct MyType.Item[]",
              "name": "items",
              "type": "tuple[]"
            }
          ],
          "internalType": "struct MyType.Data",
          "name": "",
          "type": "tuple"
        }
      ],
      "stateMutability": "view",
      "type": "function",
      "constant": true
    }
  ],
  "bytecode": "0x60806040523480156200001157600080fd5b5060405162001e6838038062001e688339818101604052810190620000379190620006dc565b336000806101000a81548173ffffffffffffffffffffffffffffffffffffffff021916908373ffffffffffffffffffffffffffffffffffffffff16021790555080600001516001600001908051906020019062000096929190620002c4565b508060200151600180019080519060200190620000b5929190620002c4565b508060400151600160020160006101000a81548160ff021916908360ff160217905550806060015160016003019080519060200190620000f7929190620002c4565b508060800151600160040160006101000a81548160ff0219169083151502179055508060a00151600160040160016101000a81548160ff021916908315150217905550426001600501819055506103e88160e00151620001589190620007af565b60016006018190555060005b81610100015151811015620002bc5760016007018261010001518281518110620001b7577f4e487b7100000000000000000000000000000000000000000000000000000000600052603260045260246000fd5b60200260200101519080600181540180825580915050600190039060005260206000209060040201600090919091909150600082015181600001908051906020019062000206929190620002c4565b50602082015181600101908051906020019062000225929190620002c4565b50604082015181600201908051906020019062000244929190620002c4565b5060608201518160030155505060006001600701828154811062000291577f4e487b7100000000000000000000000000000000000000000000000000000000600052603260045260246000fd5b9060005260206000209060040201600301819055508080620002b390620008ac565b91505062000164565b505062000a15565b828054620002d29062000840565b90600052602060002090601f016020900481019282620002f6576000855562000342565b82601f106200031157805160ff191683800117855562000342565b8280016001018555821562000342579182015b828111156200034157825182559160200191906001019062000324565b5b50905062000351919062000355565b5090565b5b808211156200037057600081600090555060010162000356565b5090565b60006200038b62000385846200074a565b62000721565b9050808382526020820190508260005b85811015620003cf5781518501620003b48882620005e4565b8452602084019350602083019250506001810190506200039b565b5050509392505050565b6000620003f0620003ea8462000779565b62000721565b9050828152602081018484840111156200040957600080fd5b620004168482856200080a565b509392505050565b600082601f8301126200043057600080fd5b81516200044284826020860162000374565b91505092915050565b6000815190506200045c81620009c7565b92915050565b600082601f8301126200047457600080fd5b815162000486848260208601620003d9565b91505092915050565b60006101208284031215620004a357600080fd5b620004b061012062000721565b9050600082015167ffffffffffffffff811115620004cd57600080fd5b620004db8482850162000462565b600083015250602082015167ffffffffffffffff811115620004fc57600080fd5b6200050a8482850162000462565b60208301525060406200052084828501620006c5565b604083015250606082015167ffffffffffffffff8111156200054157600080fd5b6200054f8482850162000462565b606083015250608062000565848285016200044b565b60808301525060a06200057b848285016200044b565b60a08301525060c06200059184828501620006ae565b60c08301525060e0620005a784828501620006ae565b60e08301525061010082015167ffffffffffffffff811115620005c957600080fd5b620005d7848285016200041e565b6101008301525092915050565b600060808284031215620005f757600080fd5b62000603608062000721565b9050600082015167ffffffffffffffff8111156200062057600080fd5b6200062e8482850162000462565b600083015250602082015167ffffffffffffffff8111156200064f57600080fd5b6200065d8482850162000462565b602083015250604082015167ffffffffffffffff8111156200067e57600080fd5b6200068c8482850162000462565b6040830152506060620006a284828501620006ae565b60608301525092915050565b600081519050620006bf81620009e1565b92915050565b600081519050620006d681620009fb565b92915050565b600060208284031215620006ef57600080fd5b600082015167ffffffffffffffff8111156200070a57600080fd5b62000718848285016200048f565b91505092915050565b60006200072d62000740565b90506200073b828262000876565b919050565b6000604051905090565b600067ffffffffffffffff82111562000768576200076762000987565b5b602082029050602081019050919050565b600067ffffffffffffffff82111562000797576200079662000987565b5b620007a282620009b6565b9050602081019050919050565b6000620007bc82620007f3565b9150620007c983620007f3565b925082620007dc57620007db62000929565b5b828204905092915050565b60008115159050919050565b6000819050919050565b600060ff82169050919050565b60005b838110156200082a5780820151818401526020810190506200080d565b838111156200083a576000848401525b50505050565b600060028204905060018216806200085957607f821691505b6020821081141562000870576200086f62000958565b5b50919050565b6200088182620009b6565b810181811067ffffffffffffffff82111715620008a357620008a262000987565b5b80604052505050565b6000620008b982620007f3565b91507fffffffffffffffffffffffffffffffffffffffffffffffffffffffffffffffff821415620008ef57620008ee620008fa565b5b600182019050919050565b7f4e487b7100000000000000000000000000000000000000000000000000000000600052601160045260246000fd5b7f4e487b7100000000000000000000000000000000000000000000000000000000600052601260045260246000fd5b7f4e487b7100000000000000000000000000000000000000000000000000000000600052602260045260246000fd5b7f4e487b7100000000000000000000000000000000000000000000000000000000600052604160045260246000fd5b6000601f19601f8301169050919050565b620009d281620007e7565b8114620009de57600080fd5b50565b620009ec81620007f3565b8114620009f857600080fd5b50565b62000a0681620007fd565b811462000a1257600080fd5b50565b6114438062000a256000396000f3fe608060405234801561001057600080fd5b50600436106100625760003560e01c80630242f3511461006757806329e1946814610085578063357a2a05146100b55780638da5cb5b146100d1578063bd9f1690146100ef578063f2fde38b1461010d575b600080fd5b61006f610129565b60405161007c9190611060565b60405180910390f35b61009f600480360381019061009a9190610a1a565b610580565b6040516100ac9190610fe5565b60405180910390f35b6100cf60048036038101906100ca9190610a43565b6105ed565b005b6100d961080a565b6040516100e69190610fca565b60405180910390f35b6100f761082e565b6040516101049190610fe5565b60405180910390f35b61012760048036038101906101229190610a1a565b61084e565b005b61013161099d565b60016040518061012001604052908160008201805461014f906111f8565b80601f016020809104026020016040519081016040528092919081815260200182805461017b906111f8565b80156101c85780601f1061019d576101008083540402835291602001916101c8565b820191906000526020600020905b8154815290600101906020018083116101ab57829003601f168201915b505050505081526020016001820180546101e1906111f8565b80601f016020809104026020016040519081016040528092919081815260200182805461020d906111f8565b801561025a5780601f1061022f5761010080835404028352916020019161025a565b820191906000526020600020905b81548152906001019060200180831161023d57829003601f168201915b505050505081526020016002820160009054906101000a900460ff1660ff1660ff168152602001600382018054610290906111f8565b80601f01602080910402602001604051908101604052809291908181526020018280546102bc906111f8565b80156103095780601f106102de57610100808354040283529160200191610309565b820191906000526020600020905b8154815290600101906020018083116102ec57829003601f168201915b505050505081526020016004820160009054906101000a900460ff161515151581526020016004820160019054906101000a900460ff16151515158152602001600582015481526020016006820154815260200160078201805480602002602001604051908101604052809291908181526020016000905b8282101561057357838290600052602060002090600402016040518060800160405290816000820180546103b4906111f8565b80601f01602080910402602001604051908101604052809291908181526020018280546103e0906111f8565b801561042d5780601f106104025761010080835404028352916020019161042d565b820191906000526020600020905b81548152906001019060200180831161041057829003601f168201915b50505050508152602001600182018054610446906111f8565b80601f0160208091040260200160405190810160405280929190818152602001828054610472906111f8565b80156104bf5780601f10610494576101008083540402835291602001916104bf565b820191906000526020600020905b8154815290600101906020018083116104a257829003601f168201915b505050505081526020016002820180546104d8906111f8565b80601f0160208091040260200160405190810160405280929190818152602001828054610504906111f8565b80156105515780601f1061052657610100808354040283529160200191610551565b820191906000526020600020905b81548152906001019060200180831161053457829003601f168201915b5050505050815260200160038201548152505081526020019060010190610381565b5050505081525050905090565b600060011515600960008473ffffffffffffffffffffffffffffffffffffffff1673ffffffffffffffffffffffffffffffffffffffff16815260200190815260200160002060009054906101000a900460ff161515146105e357600090506105e8565b600190505b919050565b6001600701805490508210610637576040517f08c379a000000000000000000000000000000000000000000000000000000000815260040161062e90611000565b60405180910390fd5b600160060154421061067e576040517f08c379a000000000000000000000000000000000000000000000000000000000815260040161067590611040565b60405180910390fd5b60011515600960008373ffffffffffffffffffffffffffffffffffffffff1673ffffffffffffffffffffffffffffffffffffffff16815260200190815260200160002060009054906101000a900460ff1615151415610712576040517f08c379a000000000000000000000000000000000000000000000000000000000815260040161070990611020565b60405180910390fd5b6001600960008373ffffffffffffffffffffffffffffffffffffffff1673ffffffffffffffffffffffffffffffffffffffff16815260200190815260200160002060006101000a81548160ff021916908315150217905550600160070182815481106107a7577f4e487b7100000000000000000000000000000000000000000000000000000000600052603260045260246000fd5b906000526020600020906004020160030160008154809291906107c990611292565b91905055507f05ce0eed620456cb86d12e80088832d491694e96ccc58908751b4ad7519f57f260016040516107fe9190611082565b60405180910390a15050565b60008054906101000a900473ffffffffffffffffffffffffffffffffffffffff1681565b6000600160060154421115610846576001905061084b565b600090505b90565b60008054906101000a900473ffffffffffffffffffffffffffffffffffffffff1673ffffffffffffffffffffffffffffffffffffffff163373ffffffffffffffffffffffffffffffffffffffff16146108a657600080fd5b600073ffffffffffffffffffffffffffffffffffffffff168173ffffffffffffffffffffffffffffffffffffffff1614156108e057600080fd5b8073ffffffffffffffffffffffffffffffffffffffff1660008054906101000a900473ffffffffffffffffffffffffffffffffffffffff1673ffffffffffffffffffffffffffffffffffffffff167f8be0079c531659141344cd1fd0a4f28419497f9722a3daafe3b4186f6b6457e060405160405180910390a3806000806101000a81548173ffffffffffffffffffffffffffffffffffffffff021916908373ffffffffffffffffffffffffffffffffffffffff16021790555050565b6040518061012001604052806060815260200160608152602001600060ff168152602001606081526020016000151581526020016000151581526020016000815260200160008152602001606081525090565b6000813590506109ff816113df565b92915050565b600081359050610a14816113f6565b92915050565b600060208284031215610a2c57600080fd5b6000610a3a848285016109f0565b91505092915050565b60008060408385031215610a5657600080fd5b6000610a6485828601610a05565b9250506020610a75858286016109f0565b9150509250929050565b6000610a8b8383610ec0565b905092915050565b6000610a9f8383610f31565b905092915050565b610ab081611170565b82525050565b6000610ac1826110de565b610acb8185611119565b935083602082028501610add856110a4565b8060005b85811015610b195784840389528151610afa8582610a7f565b9450610b05836110ff565b925060208a01995050600181019050610ae1565b50829750879550505050505092915050565b6000610b36826110e9565b610b408185611119565b935083602082028501610b52856110b4565b8060005b85811015610b8d57848403895281610b6e8582610a93565b9450610b798361110c565b925060208a01995050600181019050610b56565b50829750879550505050505092915050565b610ba881611182565b82525050565b610bb781611182565b82525050565b6000610bc8826110f4565b610bd2818561112a565b9350610be28185602086016111c5565b610beb81611339565b840191505092915050565b60008154610c03816111f8565b610c0d818661112a565b94506001821660008114610c285760018114610c3a57610c6d565b60ff1983168652602086019350610c6d565b610c43856110c9565b60005b83811015610c6557815481890152600182019150602081019050610c46565b808801955050505b50505092915050565b6000610c8360138361113b565b9150610c8e82611364565b602082019050919050565b6000610ca6600d8361113b565b9150610cb18261138d565b602082019050919050565b6000610cc9600a8361113b565b9150610cd4826113b6565b602082019050919050565b6000610120830160008301518482036000860152610cfd8282610bbd565b91505060208301518482036020860152610d178282610bbd565b9150506040830151610d2c6040860182610fbb565b5060608301518482036060860152610d448282610bbd565b9150506080830151610d596080860182610b9f565b5060a0830151610d6c60a0860182610b9f565b5060c0830151610d7f60c0860182610fac565b5060e0830151610d9260e0860182610fac565b50610100830151848203610100860152610dac8282610ab6565b9150508091505092915050565b6000610120830160008084018583036000870152610dd78382610bf6565b925050600184018583036020870152610df08382610bf6565b92505060028401549050610e038161125e565b610e106040870182610fbb565b50600384018583036060870152610e278382610bf6565b92505060048401549050610e3a8161122a565b610e476080870182610b9f565b50610e5181611278565b610e5e60a0870182610b9f565b5060058401549050610e6f81611244565b610e7c60c0870182610fac565b5060068401549050610e8d81611244565b610e9a60e0870182610fac565b5060078401858303610100870152610eb28382610b2b565b925050819250505092915050565b60006080830160008301518482036000860152610edd8282610bbd565b91505060208301518482036020860152610ef78282610bbd565b91505060408301518482036040860152610f118282610bbd565b9150506060830151610f266060860182610fac565b508091505092915050565b60006080830160008084018583036000870152610f4e8382610bf6565b925050600184018583036020870152610f678382610bf6565b925050600284018583036040870152610f808382610bf6565b92505060038401549050610f9381611244565b610fa06060870182610fac565b50819250505092915050565b610fb5816111ae565b82525050565b610fc4816111b8565b82525050565b6000602082019050610fdf6000830184610aa7565b92915050565b6000602082019050610ffa6000830184610bae565b92915050565b6000602082019050818103600083015261101981610c76565b9050919050565b6000602082019050818103600083015261103981610c99565b9050919050565b6000602082019050818103600083015261105981610cbc565b9050919050565b6000602082019050818103600083015261107a8184610cdf565b905092915050565b6000602082019050818103600083015261109c8184610db9565b905092915050565b6000819050602082019050919050565b60008190508160005260206000209050919050565b60008190508160005260206000209050919050565b600081519050919050565b600081549050919050565b600081519050919050565b6000602082019050919050565b6000600482019050919050565b600082825260208201905092915050565b600082825260208201905092915050565b600082825260208201905092915050565b600060ff82169050919050565b6000819050919050565b600060ff82169050919050565b600061117b8261118e565b9050919050565b60008115159050919050565b600073ffffffffffffffffffffffffffffffffffffffff82169050919050565b6000819050919050565b600060ff82169050919050565b60005b838110156111e35780820151818401526020810190506111c8565b838111156111f2576000848401525b50505050565b6000600282049050600182168061121057607f821691505b602082108114156112245761122361130a565b5b50919050565b600061123d6112388361134a565b61114c565b9050919050565b60006112576112528361134a565b611159565b9050919050565b600061127161126c8361134a565b611163565b9050919050565b600061128b61128683611357565b61114c565b9050919050565b600061129d826111ae565b91507fffffffffffffffffffffffffffffffffffffffffffffffffffffffffffffffff8214156112d0576112cf6112db565b5b600182019050919050565b7f4e487b7100000000000000000000000000000000000000000000000000000000600052601160045260246000fd5b7f4e487b7100000000000000000000000000000000000000000000000000000000600052602260045260246000fd5b6000601f19601f8301169050919050565b60008160001c9050919050565b60008160081c9050919050565b7f496e646578206e6f7420617661696c61626c6500000000000000000000000000600082015250565b7f416c726561647920766f74656400000000000000000000000000000000000000600082015250565b7f566f746520656e64656400000000000000000000000000000000000000000000600082015250565b6113e881611170565b81146113f357600080fd5b50565b6113ff816111ae565b811461140a57600080fd5b5056fea2646970667358221220268704af4c638002eacf62fc209726c5f144e1022355d32e0bdb194b5d3a854264736f6c63430008030033",
  "immutableReferences": {},
  "source": "pragma solidity >=0.7.0 <0.9.0;\r\n\r\nimport \"./Ownable.sol\";\r\n\r\nlibrary MyType {\r\n    struct Data {\r\n        string title;\r\n        string description;\r\n        uint8 voteType;\r\n        string imagePath;\r\n        bool bImageExist;\r\n        bool bShowDetail;\r\n        uint256 createdAt;\r\n        uint256 endedAt;\r\n        Item[] items;\r\n    }\r\n\r\n    struct Item {\r\n        string title;\r\n        string description;\r\n        string imagePath;\r\n        uint256 count;\r\n    }\r\n}\r\n\r\ncontract VoteManager {\r\n    mapping(uint256 => Vote) votes;\r\n    uint256[] voteIds;\r\n\r\n    event VoteCreated(uint256);\r\n\r\n    constructor() {}\r\n\r\n    modifier sizeAvailable(uint256 size) {\r\n        require(size < voteIds.length);\r\n        _;\r\n    }\r\n\r\n    function setVote(MyType.Data memory _data) public {\r\n        uint256 idx = voteIds.length;\r\n        voteIds.push(idx);\r\n        votes[idx] = new Vote(_data);\r\n\r\n        emit VoteCreated(idx);\r\n    }\r\n\r\n    function getVote(uint256 idx)\r\n        public\r\n        view\r\n        sizeAvailable(idx)\r\n        returns (MyType.Data memory)\r\n    {\r\n        return votes[idx].getVote();\r\n    }\r\n\r\n    function voteTo(uint256 idx, uint256 itemId) public sizeAvailable(idx) {\r\n        votes[idx].voteTo(itemId, msg.sender);\r\n    }\r\n\r\n    function isVoteEnd(uint256 idx)\r\n        public\r\n        view\r\n        sizeAvailable(idx)\r\n        returns (bool)\r\n    {\r\n        return votes[idx].isVoteEnd();\r\n    }\r\n\r\n    function isVote(uint256 idx) public view sizeAvailable(idx) returns (bool) {\r\n        return votes[idx].isVote(msg.sender);\r\n    }\r\n}\r\n\r\ncontract Vote is Ownable {\r\n    MyType.Data data;\r\n\r\n    mapping(address => bool) addressIsVote;\r\n\r\n    event VoteSuccess(MyType.Data);\r\n\r\n    constructor(MyType.Data memory _data) public {\r\n        data.title = _data.title;\r\n        data.description = _data.description;\r\n        data.voteType = _data.voteType;\r\n        data.imagePath = _data.imagePath;\r\n        data.bImageExist = _data.bImageExist;\r\n        data.bShowDetail = _data.bShowDetail;\r\n        data.createdAt = block.timestamp;\r\n        data.endedAt = _data.endedAt / 1000;\r\n        for (uint256 i = 0; i < _data.items.length; i++) {\r\n            data.items.push(_data.items[i]);\r\n            data.items[i].count = 0;\r\n        }\r\n    }\r\n\r\n    function voteTo(uint256 itemId, address _from) public {\r\n        require(itemId < data.items.length, \"Index not available\");\r\n        require(block.timestamp < data.endedAt, \"Vote ended\");\r\n        require(addressIsVote[_from] != true, \"Already voted\");\r\n        addressIsVote[_from] = true;\r\n\r\n        data.items[itemId].count++;\r\n\r\n        VoteSuccess(data);\r\n    }\r\n\r\n    function isVoteEnd() public view returns (bool) {\r\n        if (block.timestamp > data.endedAt) return true;\r\n        return false;\r\n    }\r\n\r\n    function isVote(address _from) public view returns (bool) {\r\n        if (addressIsVote[_from] != true) return false;\r\n        return true;\r\n    }\r\n\r\n    function getVote() public view returns (MyType.Data memory) {\r\n        return data;\r\n    }\r\n}\r\n",
  "sourcePath": "C:/Users/kkiu1/git-prac/blockchain/PJTSUB3/solidity/contracts/Vote.sol",
  "compiler": {
    "name": "solc",
    "version": "0.8.3+commit.8d00100c.Emscripten.clang"
  },
  "schemaVersion": "3.3.4",
  "updatedAt": "2021-04-05T07:15:23.372Z",
  "networkType": "ethereum",
  "devdoc": {
    "kind": "dev",
    "methods": {},
    "version": 1
  },
  "userdoc": {
    "kind": "user",
    "methods": {},
    "version": 1
  }
}