{
  "contractName": "Factory",
  "abi": [
    {
      "inputs": [],
      "stateMutability": "nonpayable",
      "type": "constructor"
    },
    {
      "anonymous": false,
      "inputs": [
        {
          "indexed": false,
          "internalType": "uint256",
          "name": "",
          "type": "uint256"
        }
      ],
      "name": "VoteCreated",
      "type": "event"
    },
    {
      "inputs": [
        {
          "components": [
            {
              "internalType": "string",
              "name": "title",
              "type": "string"
            },
            {
              "internalType": "string",
              "name": "description",
              "type": "string"
            },
            {
              "internalType": "uint8",
              "name": "voteType",
              "type": "uint8"
            },
            {
              "internalType": "string",
              "name": "imagePath",
              "type": "string"
            },
            {
              "internalType": "bool",
              "name": "bImageExist",
              "type": "bool"
            },
            {
              "internalType": "bool",
              "name": "bShowDetail",
              "type": "bool"
            },
            {
              "internalType": "uint256",
              "name": "createdAt",
              "type": "uint256"
            },
            {
              "internalType": "uint256",
              "name": "endedAt",
              "type": "uint256"
            },
            {
              "components": [
                {
                  "internalType": "string",
                  "name": "title",
                  "type": "string"
                },
                {
                  "internalType": "string",
                  "name": "description",
                  "type": "string"
                },
                {
                  "internalType": "string",
                  "name": "imagePath",
                  "type": "string"
                },
                {
                  "internalType": "uint256",
                  "name": "count",
                  "type": "uint256"
                }
              ],
              "internalType": "struct MyType.Item[]",
              "name": "items",
              "type": "tuple[]"
            }
          ],
          "internalType": "struct MyType.Data",
          "name": "_data",
          "type": "tuple"
        }
      ],
      "name": "setVote",
      "outputs": [],
      "stateMutability": "nonpayable",
      "type": "function"
    },
    {
      "inputs": [
        {
          "internalType": "uint256",
          "name": "idx",
          "type": "uint256"
        }
      ],
      "name": "getVote",
      "outputs": [
        {
          "components": [
            {
              "internalType": "string",
              "name": "title",
              "type": "string"
            },
            {
              "internalType": "string",
              "name": "description",
              "type": "string"
            },
            {
              "internalType": "uint8",
              "name": "voteType",
              "type": "uint8"
            },
            {
              "internalType": "string",
              "name": "imagePath",
              "type": "string"
            },
            {
              "internalType": "bool",
              "name": "bImageExist",
              "type": "bool"
            },
            {
              "internalType": "bool",
              "name": "bShowDetail",
              "type": "bool"
            },
            {
              "internalType": "uint256",
              "name": "createdAt",
              "type": "uint256"
            },
            {
              "internalType": "uint256",
              "name": "endedAt",
              "type": "uint256"
            },
            {
              "components": [
                {
                  "internalType": "string",
                  "name": "title",
                  "type": "string"
                },
                {
                  "internalType": "string",
                  "name": "description",
                  "type": "string"
                },
                {
                  "internalType": "string",
                  "name": "imagePath",
                  "type": "string"
                },
                {
                  "internalType": "uint256",
                  "name": "count",
                  "type": "uint256"
                }
              ],
              "internalType": "struct MyType.Item[]",
              "name": "items",
              "type": "tuple[]"
            }
          ],
          "internalType": "struct MyType.Data",
          "name": "",
          "type": "tuple"
        }
      ],
      "stateMutability": "view",
      "type": "function",
      "constant": true
    },
    {
      "inputs": [
        {
          "internalType": "uint256",
          "name": "idx",
          "type": "uint256"
        },
        {
          "internalType": "uint256",
          "name": "itemId",
          "type": "uint256"
        }
      ],
      "name": "voteTo",
      "outputs": [],
      "stateMutability": "nonpayable",
      "type": "function"
    },
    {
      "inputs": [
        {
          "internalType": "uint256",
          "name": "idx",
          "type": "uint256"
        }
      ],
      "name": "isVoteEnd",
      "outputs": [
        {
          "internalType": "bool",
          "name": "",
          "type": "bool"
        }
      ],
      "stateMutability": "view",
      "type": "function",
      "constant": true
    }
  ],
  "bytecode": "0x608060405234801561001057600080fd5b50612f99806100206000396000f3fe60806040523480156200001157600080fd5b5060043610620000525760003560e01c80635a55c1f014620000575780637c05fd8d146200008d578063d03afc0e14620000ad578063ecccc4ec14620000e3575b600080fd5b6200007560048036038101906200006f919062000c4b565b62000103565b60405162000084919062000f67565b60405180910390f35b620000ab6004803603810190620000a5919062000c77565b620001e1565b005b620000cb6004803603810190620000c5919062000c4b565b6200029a565b604051620000da919062000f4a565b60405180910390f35b620001016004803603810190620000fb919062000bc1565b6200036b565b005b6200010d62000464565b8160018054905081106200012057600080fd5b60008084815260200190815260200160002060009054906101000a900473ffffffffffffffffffffffffffffffffffffffff1673ffffffffffffffffffffffffffffffffffffffff16630242f3516040518163ffffffff1660e01b815260040160006040518083038186803b1580156200019957600080fd5b505afa158015620001ae573d6000803e3d6000fd5b505050506040513d6000823e3d601f19601f82011682018060405250810190620001d9919062000c06565b915050919050565b816001805490508110620001f457600080fd5b60008084815260200190815260200160002060009054906101000a900473ffffffffffffffffffffffffffffffffffffffff1673ffffffffffffffffffffffffffffffffffffffff16633d7b995c836040518263ffffffff1660e01b815260040162000261919062000f8b565b600060405180830381600087803b1580156200027c57600080fd5b505af115801562000291573d6000803e3d6000fd5b50505050505050565b6000816001805490508110620002af57600080fd5b60008084815260200190815260200160002060009054906101000a900473ffffffffffffffffffffffffffffffffffffffff1673ffffffffffffffffffffffffffffffffffffffff1663bd9f16906040518163ffffffff1660e01b815260040160206040518083038186803b1580156200032857600080fd5b505afa1580156200033d573d6000803e3d6000fd5b505050506040513d601f19601f8201168201806040525081019062000363919062000b95565b915050919050565b60006001805490509050600181908060018154018082558091505060019003906000526020600020016000909190919091505581604051620003ad90620004b7565b620003b9919062000f67565b604051809103906000f080158015620003d6573d6000803e3d6000fd5b5060008083815260200190815260200160002060006101000a81548173ffffffffffffffffffffffffffffffffffffffff021916908373ffffffffffffffffffffffffffffffffffffffff1602179055507fa578a560f68c1301360cd84f59a6f2fcc8aeefbbc637f3fa97930e1c89cc554f8160405162000458919062000f8b565b60405180910390a15050565b6040518061012001604052806060815260200160608152602001600060ff168152602001606081526020016000151581526020016000151581526020016000815260200160008152602001606081525090565b611dac80620011b883390190565b6000620004dc620004d68462000fd1565b62000fa8565b9050808382526020820190508260005b85811015620005205781358501620005058882620009a5565b845260208401935060208301925050600181019050620004ec565b5050509392505050565b6000620005416200053b8462000fd1565b62000fa8565b9050808382526020820190508260005b858110156200058557815185016200056a888262000a6f565b84526020840193506020830192505060018101905062000551565b5050509392505050565b6000620005a6620005a08462001000565b62000fa8565b905082815260208101848484011115620005bf57600080fd5b620005cc848285620010ae565b509392505050565b6000620005eb620005e58462001000565b62000fa8565b9050828152602081018484840111156200060457600080fd5b62000611848285620010bd565b509392505050565b600082601f8301126200062b57600080fd5b81356200063d848260208601620004c5565b91505092915050565b600082601f8301126200065857600080fd5b81516200066a8482602086016200052a565b91505092915050565b600081359050620006848162001169565b92915050565b6000815190506200069b8162001169565b92915050565b600082601f830112620006b357600080fd5b8135620006c58482602086016200058f565b91505092915050565b600082601f830112620006e057600080fd5b8151620006f2848260208601620005d4565b91505092915050565b600061012082840312156200070f57600080fd5b6200071c61012062000fa8565b9050600082013567ffffffffffffffff8111156200073957600080fd5b6200074784828501620006a1565b600083015250602082013567ffffffffffffffff8111156200076857600080fd5b6200077684828501620006a1565b60208301525060406200078c8482850162000b67565b604083015250606082013567ffffffffffffffff811115620007ad57600080fd5b620007bb84828501620006a1565b6060830152506080620007d18482850162000673565b60808301525060a0620007e78482850162000673565b60a08301525060c0620007fd8482850162000b39565b60c08301525060e0620008138482850162000b39565b60e08301525061010082013567ffffffffffffffff8111156200083557600080fd5b620008438482850162000619565b6101008301525092915050565b600061012082840312156200086457600080fd5b6200087161012062000fa8565b9050600082015167ffffffffffffffff8111156200088e57600080fd5b6200089c84828501620006ce565b600083015250602082015167ffffffffffffffff811115620008bd57600080fd5b620008cb84828501620006ce565b6020830152506040620008e18482850162000b7e565b604083015250606082015167ffffffffffffffff8111156200090257600080fd5b6200091084828501620006ce565b606083015250608062000926848285016200068a565b60808301525060a06200093c848285016200068a565b60a08301525060c0620009528482850162000b50565b60c08301525060e0620009688482850162000b50565b60e08301525061010082015167ffffffffffffffff8111156200098a57600080fd5b620009988482850162000646565b6101008301525092915050565b600060808284031215620009b857600080fd5b620009c4608062000fa8565b9050600082013567ffffffffffffffff811115620009e157600080fd5b620009ef84828501620006a1565b600083015250602082013567ffffffffffffffff81111562000a1057600080fd5b62000a1e84828501620006a1565b602083015250604082013567ffffffffffffffff81111562000a3f57600080fd5b62000a4d84828501620006a1565b604083015250606062000a638482850162000b39565b60608301525092915050565b60006080828403121562000a8257600080fd5b62000a8e608062000fa8565b9050600082015167ffffffffffffffff81111562000aab57600080fd5b62000ab984828501620006ce565b600083015250602082015167ffffffffffffffff81111562000ada57600080fd5b62000ae884828501620006ce565b602083015250604082015167ffffffffffffffff81111562000b0957600080fd5b62000b1784828501620006ce565b604083015250606062000b2d8482850162000b50565b60608301525092915050565b60008135905062000b4a8162001183565b92915050565b60008151905062000b618162001183565b92915050565b60008135905062000b78816200119d565b92915050565b60008151905062000b8f816200119d565b92915050565b60006020828403121562000ba857600080fd5b600062000bb8848285016200068a565b91505092915050565b60006020828403121562000bd457600080fd5b600082013567ffffffffffffffff81111562000bef57600080fd5b62000bfd84828501620006fb565b91505092915050565b60006020828403121562000c1957600080fd5b600082015167ffffffffffffffff81111562000c3457600080fd5b62000c428482850162000850565b91505092915050565b60006020828403121562000c5e57600080fd5b600062000c6e8482850162000b39565b91505092915050565b6000806040838503121562000c8b57600080fd5b600062000c9b8582860162000b39565b925050602062000cae8582860162000b39565b9150509250929050565b600062000cc6838362000e9e565b905092915050565b600062000cdb8262001046565b62000ce7818562001069565b93508360208202850162000cfb8562001036565b8060005b8581101562000d3d578484038952815162000d1b858262000cb8565b945062000d28836200105c565b925060208a0199505060018101905062000cff565b50829750879550505050505092915050565b62000d5a816200108b565b82525050565b62000d6b816200108b565b82525050565b600062000d7e8262001051565b62000d8a81856200107a565b935062000d9c818560208601620010bd565b62000da78162001158565b840191505092915050565b600061012083016000830151848203600086015262000dd2828262000d71565b9150506020830151848203602086015262000dee828262000d71565b915050604083015162000e05604086018262000f39565b506060830151848203606086015262000e1f828262000d71565b915050608083015162000e36608086018262000d4f565b5060a083015162000e4b60a086018262000d4f565b5060c083015162000e6060c086018262000f17565b5060e083015162000e7560e086018262000f17565b5061010083015184820361010086015262000e91828262000cce565b9150508091505092915050565b6000608083016000830151848203600086015262000ebd828262000d71565b9150506020830151848203602086015262000ed9828262000d71565b9150506040830151848203604086015262000ef5828262000d71565b915050606083015162000f0c606086018262000f17565b508091505092915050565b62000f228162001097565b82525050565b62000f338162001097565b82525050565b62000f4481620010a1565b82525050565b600060208201905062000f61600083018462000d60565b92915050565b6000602082019050818103600083015262000f83818462000db2565b905092915050565b600060208201905062000fa2600083018462000f28565b92915050565b600062000fb462000fc7565b905062000fc28282620010f3565b919050565b6000604051905090565b600067ffffffffffffffff82111562000fef5762000fee62001129565b5b602082029050602081019050919050565b600067ffffffffffffffff8211156200101e576200101d62001129565b5b620010298262001158565b9050602081019050919050565b6000819050602082019050919050565b600081519050919050565b600081519050919050565b6000602082019050919050565b600082825260208201905092915050565b600082825260208201905092915050565b60008115159050919050565b6000819050919050565b600060ff82169050919050565b82818337600083830152505050565b60005b83811015620010dd578082015181840152602081019050620010c0565b83811115620010ed576000848401525b50505050565b620010fe8262001158565b810181811067ffffffffffffffff8211171562001120576200111f62001129565b5b80604052505050565b7f4e487b7100000000000000000000000000000000000000000000000000000000600052604160045260246000fd5b6000601f19601f8301169050919050565b62001174816200108b565b81146200118057600080fd5b50565b6200118e8162001097565b81146200119a57600080fd5b50565b620011a881620010a1565b8114620011b457600080fd5b5056fe60806040523480156200001157600080fd5b5060405162001dac38038062001dac8339818101604052810190620000379190620006dc565b336000806101000a81548173ffffffffffffffffffffffffffffffffffffffff021916908373ffffffffffffffffffffffffffffffffffffffff16021790555080600001516001600001908051906020019062000096929190620002c4565b508060200151600180019080519060200190620000b5929190620002c4565b508060400151600160020160006101000a81548160ff021916908360ff160217905550806060015160016003019080519060200190620000f7929190620002c4565b508060800151600160040160006101000a81548160ff0219169083151502179055508060a00151600160040160016101000a81548160ff021916908315150217905550426001600501819055506103e88160e00151620001589190620007af565b60016006018190555060005b81610100015151811015620002bc5760016007018261010001518281518110620001b7577f4e487b7100000000000000000000000000000000000000000000000000000000600052603260045260246000fd5b60200260200101519080600181540180825580915050600190039060005260206000209060040201600090919091909150600082015181600001908051906020019062000206929190620002c4565b50602082015181600101908051906020019062000225929190620002c4565b50604082015181600201908051906020019062000244929190620002c4565b5060608201518160030155505060006001600701828154811062000291577f4e487b7100000000000000000000000000000000000000000000000000000000600052603260045260246000fd5b9060005260206000209060040201600301819055508080620002b390620008ac565b91505062000164565b505062000a15565b828054620002d29062000840565b90600052602060002090601f016020900481019282620002f6576000855562000342565b82601f106200031157805160ff191683800117855562000342565b8280016001018555821562000342579182015b828111156200034157825182559160200191906001019062000324565b5b50905062000351919062000355565b5090565b5b808211156200037057600081600090555060010162000356565b5090565b60006200038b62000385846200074a565b62000721565b9050808382526020820190508260005b85811015620003cf5781518501620003b48882620005e4565b8452602084019350602083019250506001810190506200039b565b5050509392505050565b6000620003f0620003ea8462000779565b62000721565b9050828152602081018484840111156200040957600080fd5b620004168482856200080a565b509392505050565b600082601f8301126200043057600080fd5b81516200044284826020860162000374565b91505092915050565b6000815190506200045c81620009c7565b92915050565b600082601f8301126200047457600080fd5b815162000486848260208601620003d9565b91505092915050565b60006101208284031215620004a357600080fd5b620004b061012062000721565b9050600082015167ffffffffffffffff811115620004cd57600080fd5b620004db8482850162000462565b600083015250602082015167ffffffffffffffff811115620004fc57600080fd5b6200050a8482850162000462565b60208301525060406200052084828501620006c5565b604083015250606082015167ffffffffffffffff8111156200054157600080fd5b6200054f8482850162000462565b606083015250608062000565848285016200044b565b60808301525060a06200057b848285016200044b565b60a08301525060c06200059184828501620006ae565b60c08301525060e0620005a784828501620006ae565b60e08301525061010082015167ffffffffffffffff811115620005c957600080fd5b620005d7848285016200041e565b6101008301525092915050565b600060808284031215620005f757600080fd5b62000603608062000721565b9050600082015167ffffffffffffffff8111156200062057600080fd5b6200062e8482850162000462565b600083015250602082015167ffffffffffffffff8111156200064f57600080fd5b6200065d8482850162000462565b602083015250604082015167ffffffffffffffff8111156200067e57600080fd5b6200068c8482850162000462565b6040830152506060620006a284828501620006ae565b60608301525092915050565b600081519050620006bf81620009e1565b92915050565b600081519050620006d681620009fb565b92915050565b600060208284031215620006ef57600080fd5b600082015167ffffffffffffffff8111156200070a57600080fd5b62000718848285016200048f565b91505092915050565b60006200072d62000740565b90506200073b828262000876565b919050565b6000604051905090565b600067ffffffffffffffff82111562000768576200076762000987565b5b602082029050602081019050919050565b600067ffffffffffffffff82111562000797576200079662000987565b5b620007a282620009b6565b9050602081019050919050565b6000620007bc82620007f3565b9150620007c983620007f3565b925082620007dc57620007db62000929565b5b828204905092915050565b60008115159050919050565b6000819050919050565b600060ff82169050919050565b60005b838110156200082a5780820151818401526020810190506200080d565b838111156200083a576000848401525b50505050565b600060028204905060018216806200085957607f821691505b6020821081141562000870576200086f62000958565b5b50919050565b6200088182620009b6565b810181811067ffffffffffffffff82111715620008a357620008a262000987565b5b80604052505050565b6000620008b982620007f3565b91507fffffffffffffffffffffffffffffffffffffffffffffffffffffffffffffffff821415620008ef57620008ee620008fa565b5b600182019050919050565b7f4e487b7100000000000000000000000000000000000000000000000000000000600052601160045260246000fd5b7f4e487b7100000000000000000000000000000000000000000000000000000000600052601260045260246000fd5b7f4e487b7100000000000000000000000000000000000000000000000000000000600052602260045260246000fd5b7f4e487b7100000000000000000000000000000000000000000000000000000000600052604160045260246000fd5b6000601f19601f8301169050919050565b620009d281620007e7565b8114620009de57600080fd5b50565b620009ec81620007f3565b8114620009f857600080fd5b50565b62000a0681620007fd565b811462000a1257600080fd5b50565b6113878062000a256000396000f3fe608060405234801561001057600080fd5b50600436106100575760003560e01c80630242f3511461005c5780633d7b995c1461007a5780638da5cb5b14610096578063bd9f1690146100b4578063f2fde38b146100d2575b600080fd5b6100646100ee565b6040516100719190610fa4565b60405180910390f35b610094600480360381019061008f919061099a565b610545565b005b61009e610761565b6040516100ab9190610f0e565b60405180910390f35b6100bc610785565b6040516100c99190610f29565b60405180910390f35b6100ec60048036038101906100e79190610971565b6107a5565b005b6100f66108f4565b6001604051806101200160405290816000820180546101149061113c565b80601f01602080910402602001604051908101604052809291908181526020018280546101409061113c565b801561018d5780601f106101625761010080835404028352916020019161018d565b820191906000526020600020905b81548152906001019060200180831161017057829003601f168201915b505050505081526020016001820180546101a69061113c565b80601f01602080910402602001604051908101604052809291908181526020018280546101d29061113c565b801561021f5780601f106101f45761010080835404028352916020019161021f565b820191906000526020600020905b81548152906001019060200180831161020257829003601f168201915b505050505081526020016002820160009054906101000a900460ff1660ff1660ff1681526020016003820180546102559061113c565b80601f01602080910402602001604051908101604052809291908181526020018280546102819061113c565b80156102ce5780601f106102a3576101008083540402835291602001916102ce565b820191906000526020600020905b8154815290600101906020018083116102b157829003601f168201915b505050505081526020016004820160009054906101000a900460ff161515151581526020016004820160019054906101000a900460ff16151515158152602001600582015481526020016006820154815260200160078201805480602002602001604051908101604052809291908181526020016000905b8282101561053857838290600052602060002090600402016040518060800160405290816000820180546103799061113c565b80601f01602080910402602001604051908101604052809291908181526020018280546103a59061113c565b80156103f25780601f106103c7576101008083540402835291602001916103f2565b820191906000526020600020905b8154815290600101906020018083116103d557829003601f168201915b5050505050815260200160018201805461040b9061113c565b80601f01602080910402602001604051908101604052809291908181526020018280546104379061113c565b80156104845780601f1061045957610100808354040283529160200191610484565b820191906000526020600020905b81548152906001019060200180831161046757829003601f168201915b5050505050815260200160028201805461049d9061113c565b80601f01602080910402602001604051908101604052809291908181526020018280546104c99061113c565b80156105165780601f106104eb57610100808354040283529160200191610516565b820191906000526020600020905b8154815290600101906020018083116104f957829003601f168201915b5050505050815260200160038201548152505081526020019060010190610346565b5050505081525050905090565b600160070180549050811061058f576040517f08c379a000000000000000000000000000000000000000000000000000000000815260040161058690610f44565b60405180910390fd5b60016006015442106105d6576040517f08c379a00000000000000000000000000000000000000000000000000000000081526004016105cd90610f84565b60405180910390fd5b60011515600960003373ffffffffffffffffffffffffffffffffffffffff1673ffffffffffffffffffffffffffffffffffffffff16815260200190815260200160002060009054906101000a900460ff161515141561066a576040517f08c379a000000000000000000000000000000000000000000000000000000000815260040161066190610f64565b60405180910390fd5b6001600960003373ffffffffffffffffffffffffffffffffffffffff1673ffffffffffffffffffffffffffffffffffffffff16815260200190815260200160002060006101000a81548160ff021916908315150217905550600160070181815481106106ff577f4e487b7100000000000000000000000000000000000000000000000000000000600052603260045260246000fd5b90600052602060002090600402016003016000815480929190610721906111d6565b91905055507f05ce0eed620456cb86d12e80088832d491694e96ccc58908751b4ad7519f57f260016040516107569190610fc6565b60405180910390a150565b60008054906101000a900473ffffffffffffffffffffffffffffffffffffffff1681565b600060016006015442111561079d57600190506107a2565b600090505b90565b60008054906101000a900473ffffffffffffffffffffffffffffffffffffffff1673ffffffffffffffffffffffffffffffffffffffff163373ffffffffffffffffffffffffffffffffffffffff16146107fd57600080fd5b600073ffffffffffffffffffffffffffffffffffffffff168173ffffffffffffffffffffffffffffffffffffffff16141561083757600080fd5b8073ffffffffffffffffffffffffffffffffffffffff1660008054906101000a900473ffffffffffffffffffffffffffffffffffffffff1673ffffffffffffffffffffffffffffffffffffffff167f8be0079c531659141344cd1fd0a4f28419497f9722a3daafe3b4186f6b6457e060405160405180910390a3806000806101000a81548173ffffffffffffffffffffffffffffffffffffffff021916908373ffffffffffffffffffffffffffffffffffffffff16021790555050565b6040518061012001604052806060815260200160608152602001600060ff168152602001606081526020016000151581526020016000151581526020016000815260200160008152602001606081525090565b60008135905061095681611323565b92915050565b60008135905061096b8161133a565b92915050565b60006020828403121561098357600080fd5b600061099184828501610947565b91505092915050565b6000602082840312156109ac57600080fd5b60006109ba8482850161095c565b91505092915050565b60006109cf8383610e04565b905092915050565b60006109e38383610e75565b905092915050565b6109f4816110b4565b82525050565b6000610a0582611022565b610a0f818561105d565b935083602082028501610a2185610fe8565b8060005b85811015610a5d5784840389528151610a3e85826109c3565b9450610a4983611043565b925060208a01995050600181019050610a25565b50829750879550505050505092915050565b6000610a7a8261102d565b610a84818561105d565b935083602082028501610a9685610ff8565b8060005b85811015610ad157848403895281610ab285826109d7565b9450610abd83611050565b925060208a01995050600181019050610a9a565b50829750879550505050505092915050565b610aec816110c6565b82525050565b610afb816110c6565b82525050565b6000610b0c82611038565b610b16818561106e565b9350610b26818560208601611109565b610b2f8161127d565b840191505092915050565b60008154610b478161113c565b610b51818661106e565b94506001821660008114610b6c5760018114610b7e57610bb1565b60ff1983168652602086019350610bb1565b610b878561100d565b60005b83811015610ba957815481890152600182019150602081019050610b8a565b808801955050505b50505092915050565b6000610bc760138361107f565b9150610bd2826112a8565b602082019050919050565b6000610bea600d8361107f565b9150610bf5826112d1565b602082019050919050565b6000610c0d600a8361107f565b9150610c18826112fa565b602082019050919050565b6000610120830160008301518482036000860152610c418282610b01565b91505060208301518482036020860152610c5b8282610b01565b9150506040830151610c706040860182610eff565b5060608301518482036060860152610c888282610b01565b9150506080830151610c9d6080860182610ae3565b5060a0830151610cb060a0860182610ae3565b5060c0830151610cc360c0860182610ef0565b5060e0830151610cd660e0860182610ef0565b50610100830151848203610100860152610cf082826109fa565b9150508091505092915050565b6000610120830160008084018583036000870152610d1b8382610b3a565b925050600184018583036020870152610d348382610b3a565b92505060028401549050610d47816111a2565b610d546040870182610eff565b50600384018583036060870152610d6b8382610b3a565b92505060048401549050610d7e8161116e565b610d8b6080870182610ae3565b50610d95816111bc565b610da260a0870182610ae3565b5060058401549050610db381611188565b610dc060c0870182610ef0565b5060068401549050610dd181611188565b610dde60e0870182610ef0565b5060078401858303610100870152610df68382610a6f565b925050819250505092915050565b60006080830160008301518482036000860152610e218282610b01565b91505060208301518482036020860152610e3b8282610b01565b91505060408301518482036040860152610e558282610b01565b9150506060830151610e6a6060860182610ef0565b508091505092915050565b60006080830160008084018583036000870152610e928382610b3a565b925050600184018583036020870152610eab8382610b3a565b925050600284018583036040870152610ec48382610b3a565b92505060038401549050610ed781611188565b610ee46060870182610ef0565b50819250505092915050565b610ef9816110f2565b82525050565b610f08816110fc565b82525050565b6000602082019050610f2360008301846109eb565b92915050565b6000602082019050610f3e6000830184610af2565b92915050565b60006020820190508181036000830152610f5d81610bba565b9050919050565b60006020820190508181036000830152610f7d81610bdd565b9050919050565b60006020820190508181036000830152610f9d81610c00565b9050919050565b60006020820190508181036000830152610fbe8184610c23565b905092915050565b60006020820190508181036000830152610fe08184610cfd565b905092915050565b6000819050602082019050919050565b60008190508160005260206000209050919050565b60008190508160005260206000209050919050565b600081519050919050565b600081549050919050565b600081519050919050565b6000602082019050919050565b6000600482019050919050565b600082825260208201905092915050565b600082825260208201905092915050565b600082825260208201905092915050565b600060ff82169050919050565b6000819050919050565b600060ff82169050919050565b60006110bf826110d2565b9050919050565b60008115159050919050565b600073ffffffffffffffffffffffffffffffffffffffff82169050919050565b6000819050919050565b600060ff82169050919050565b60005b8381101561112757808201518184015260208101905061110c565b83811115611136576000848401525b50505050565b6000600282049050600182168061115457607f821691505b602082108114156111685761116761124e565b5b50919050565b600061118161117c8361128e565b611090565b9050919050565b600061119b6111968361128e565b61109d565b9050919050565b60006111b56111b08361128e565b6110a7565b9050919050565b60006111cf6111ca8361129b565b611090565b9050919050565b60006111e1826110f2565b91507fffffffffffffffffffffffffffffffffffffffffffffffffffffffffffffffff8214156112145761121361121f565b5b600182019050919050565b7f4e487b7100000000000000000000000000000000000000000000000000000000600052601160045260246000fd5b7f4e487b7100000000000000000000000000000000000000000000000000000000600052602260045260246000fd5b6000601f19601f8301169050919050565b60008160001c9050919050565b60008160081c9050919050565b7f496e646578206e6f7420617661696c61626c6500000000000000000000000000600082015250565b7f416c726561647920766f74656400000000000000000000000000000000000000600082015250565b7f566f746520656e64656400000000000000000000000000000000000000000000600082015250565b61132c816110b4565b811461133757600080fd5b50565b611343816110f2565b811461134e57600080fd5b5056fea26469706673582212209f2ee481848ca7a01ee919aa8febf6faac52894b3b95e9c7dbed5d5454af412264736f6c63430008030033a2646970667358221220b1f73ccf392a7691b3f9e09b587ad8c6c8cfc3ce65de17ff117003717926a6e664736f6c63430008030033",
  "immutableReferences": {},
  "source": "pragma solidity >=0.7.0 <0.9.0;\r\n\r\nimport \"./Ownable.sol\";\r\n\r\nlibrary MyType {\r\n    struct Data {\r\n        string title;\r\n        string description;\r\n        uint8 voteType;\r\n        string imagePath;\r\n        bool bImageExist;\r\n        bool bShowDetail;\r\n        uint256 createdAt;\r\n        uint256 endedAt;\r\n        Item[] items;\r\n    }\r\n\r\n    struct Item {\r\n        string title;\r\n        string description;\r\n        string imagePath;\r\n        uint256 count;\r\n    }\r\n}\r\n\r\ncontract Factory {\r\n    mapping(uint256 => Vote) votes;\r\n    uint256[] voteIds;\r\n\r\n    event VoteCreated(uint256);\r\n\r\n    constructor() {}\r\n\r\n    modifier sizeAvailable(uint256 size) {\r\n        require(size < voteIds.length);\r\n        _;\r\n    }\r\n\r\n    function setVote(MyType.Data memory _data) public {\r\n        uint256 idx = voteIds.length;\r\n        voteIds.push(idx);\r\n        votes[idx] = new Vote(_data);\r\n\r\n        emit VoteCreated(idx);\r\n    }\r\n\r\n    function getVote(uint256 idx)\r\n        public\r\n        view\r\n        sizeAvailable(idx)\r\n        returns (MyType.Data memory)\r\n    {\r\n        return votes[idx].getVote();\r\n    }\r\n\r\n    function voteTo(uint256 idx, uint256 itemId) public sizeAvailable(idx) {\r\n        votes[idx].voteTo(itemId);\r\n    }\r\n\r\n    function isVoteEnd(uint256 idx)\r\n        public\r\n        view\r\n        sizeAvailable(idx)\r\n        returns (bool)\r\n    {\r\n        return votes[idx].isVoteEnd();\r\n    }\r\n}\r\n\r\ncontract Vote is Ownable {\r\n    MyType.Data data;\r\n\r\n    mapping(address => bool) addressIsVote;\r\n\r\n    event VoteSuccess(MyType.Data);\r\n\r\n    constructor(MyType.Data memory _data) public {\r\n        data.title = _data.title;\r\n        data.description = _data.description;\r\n        data.voteType = _data.voteType;\r\n        data.imagePath = _data.imagePath;\r\n        data.bImageExist = _data.bImageExist;\r\n        data.bShowDetail = _data.bShowDetail;\r\n        data.createdAt = block.timestamp;\r\n        data.endedAt = _data.endedAt / 1000;\r\n        for (uint256 i = 0; i < _data.items.length; i++) {\r\n            data.items.push(_data.items[i]);\r\n            data.items[i].count = 0;\r\n        }\r\n    }\r\n\r\n    function voteTo(uint256 itemId) public {\r\n        require(itemId < data.items.length, \"Index not available\");\r\n        require(block.timestamp < data.endedAt, \"Vote ended\");\r\n        require(addressIsVote[msg.sender] != true, \"Already voted\");\r\n        addressIsVote[msg.sender] = true;\r\n\r\n        data.items[itemId].count++;\r\n\r\n        VoteSuccess(data);\r\n    }\r\n\r\n    function isVoteEnd() public view returns (bool) {\r\n        if (block.timestamp > data.endedAt) return true;\r\n        return false;\r\n    }\r\n\r\n    function getVote() public view returns (MyType.Data memory) {\r\n        return data;\r\n    }\r\n}\r\n",
  "sourcePath": "C:/Users/kkiu1/git-prac/blockchain/PJTSUB3/solidity/contracts/Vote.sol",
  "compiler": {
    "name": "solc",
    "version": "0.8.3+commit.8d00100c.Emscripten.clang"
  },
  "schemaVersion": "3.3.4",
  "updatedAt": "2021-03-30T17:58:40.650Z",
  "networkType": "ethereum",
  "devdoc": {
    "kind": "dev",
    "methods": {},
    "version": 1
  },
  "userdoc": {
    "kind": "user",
    "methods": {},
    "version": 1
  }
}