{
  "contractName": "Vote",
  "abi": [
    {
      "inputs": [
        {
          "components": [
            {
              "internalType": "string",
              "name": "title",
              "type": "string"
            },
            {
              "internalType": "string",
              "name": "description",
              "type": "string"
            },
            {
              "internalType": "uint8",
              "name": "voteType",
              "type": "uint8"
            },
            {
              "internalType": "string",
              "name": "imagePath",
              "type": "string"
            },
            {
              "internalType": "bool",
              "name": "bImageExist",
              "type": "bool"
            },
            {
              "internalType": "bool",
              "name": "bShowDetail",
              "type": "bool"
            },
            {
              "internalType": "uint256",
              "name": "createdAt",
              "type": "uint256"
            },
            {
              "internalType": "uint256",
              "name": "endedAt",
              "type": "uint256"
            },
            {
              "components": [
                {
                  "internalType": "string",
                  "name": "title",
                  "type": "string"
                },
                {
                  "internalType": "string",
                  "name": "description",
                  "type": "string"
                },
                {
                  "internalType": "string",
                  "name": "imagePath",
                  "type": "string"
                },
                {
                  "internalType": "uint256",
                  "name": "count",
                  "type": "uint256"
                }
              ],
              "internalType": "struct MyType.Item[]",
              "name": "items",
              "type": "tuple[]"
            }
          ],
          "internalType": "struct MyType.Data",
          "name": "_data",
          "type": "tuple"
        }
      ],
      "stateMutability": "nonpayable",
      "type": "constructor"
    },
    {
      "anonymous": false,
      "inputs": [
        {
          "indexed": true,
          "internalType": "address",
          "name": "previousOwner",
          "type": "address"
        },
        {
          "indexed": true,
          "internalType": "address",
          "name": "newOwner",
          "type": "address"
        }
      ],
      "name": "OwnershipTransferred",
      "type": "event"
    },
    {
      "anonymous": false,
      "inputs": [
        {
          "components": [
            {
              "internalType": "string",
              "name": "title",
              "type": "string"
            },
            {
              "internalType": "string",
              "name": "description",
              "type": "string"
            },
            {
              "internalType": "uint8",
              "name": "voteType",
              "type": "uint8"
            },
            {
              "internalType": "string",
              "name": "imagePath",
              "type": "string"
            },
            {
              "internalType": "bool",
              "name": "bImageExist",
              "type": "bool"
            },
            {
              "internalType": "bool",
              "name": "bShowDetail",
              "type": "bool"
            },
            {
              "internalType": "uint256",
              "name": "createdAt",
              "type": "uint256"
            },
            {
              "internalType": "uint256",
              "name": "endedAt",
              "type": "uint256"
            },
            {
              "components": [
                {
                  "internalType": "string",
                  "name": "title",
                  "type": "string"
                },
                {
                  "internalType": "string",
                  "name": "description",
                  "type": "string"
                },
                {
                  "internalType": "string",
                  "name": "imagePath",
                  "type": "string"
                },
                {
                  "internalType": "uint256",
                  "name": "count",
                  "type": "uint256"
                }
              ],
              "internalType": "struct MyType.Item[]",
              "name": "items",
              "type": "tuple[]"
            }
          ],
          "indexed": false,
          "internalType": "struct MyType.Data",
          "name": "",
          "type": "tuple"
        }
      ],
      "name": "VoteSuccess",
      "type": "event"
    },
    {
      "inputs": [],
      "name": "owner",
      "outputs": [
        {
          "internalType": "address",
          "name": "",
          "type": "address"
        }
      ],
      "stateMutability": "view",
      "type": "function",
      "constant": true
    },
    {
      "inputs": [
        {
          "internalType": "address",
          "name": "newOwner",
          "type": "address"
        }
      ],
      "name": "transferOwnership",
      "outputs": [],
      "stateMutability": "nonpayable",
      "type": "function"
    },
    {
      "inputs": [
        {
          "internalType": "uint256",
          "name": "itemId",
          "type": "uint256"
        }
      ],
      "name": "voteTo",
      "outputs": [],
      "stateMutability": "nonpayable",
      "type": "function"
    },
    {
      "inputs": [],
      "name": "isVoteEnd",
      "outputs": [
        {
          "internalType": "bool",
          "name": "",
          "type": "bool"
        }
      ],
      "stateMutability": "view",
      "type": "function",
      "constant": true
    },
    {
      "inputs": [],
      "name": "isVote",
      "outputs": [
        {
          "internalType": "bool",
          "name": "",
          "type": "bool"
        }
      ],
      "stateMutability": "view",
      "type": "function",
      "constant": true
    },
    {
      "inputs": [],
      "name": "getVote",
      "outputs": [
        {
          "components": [
            {
              "internalType": "string",
              "name": "title",
              "type": "string"
            },
            {
              "internalType": "string",
              "name": "description",
              "type": "string"
            },
            {
              "internalType": "uint8",
              "name": "voteType",
              "type": "uint8"
            },
            {
              "internalType": "string",
              "name": "imagePath",
              "type": "string"
            },
            {
              "internalType": "bool",
              "name": "bImageExist",
              "type": "bool"
            },
            {
              "internalType": "bool",
              "name": "bShowDetail",
              "type": "bool"
            },
            {
              "internalType": "uint256",
              "name": "createdAt",
              "type": "uint256"
            },
            {
              "internalType": "uint256",
              "name": "endedAt",
              "type": "uint256"
            },
            {
              "components": [
                {
                  "internalType": "string",
                  "name": "title",
                  "type": "string"
                },
                {
                  "internalType": "string",
                  "name": "description",
                  "type": "string"
                },
                {
                  "internalType": "string",
                  "name": "imagePath",
                  "type": "string"
                },
                {
                  "internalType": "uint256",
                  "name": "count",
                  "type": "uint256"
                }
              ],
              "internalType": "struct MyType.Item[]",
              "name": "items",
              "type": "tuple[]"
            }
          ],
          "internalType": "struct MyType.Data",
          "name": "",
          "type": "tuple"
        }
      ],
      "stateMutability": "view",
      "type": "function",
      "constant": true
    }
  ],
  "bytecode": "0x60806040523480156200001157600080fd5b5060405162001e4038038062001e408339818101604052810190620000379190620006dc565b336000806101000a81548173ffffffffffffffffffffffffffffffffffffffff021916908373ffffffffffffffffffffffffffffffffffffffff16021790555080600001516001600001908051906020019062000096929190620002c4565b508060200151600180019080519060200190620000b5929190620002c4565b508060400151600160020160006101000a81548160ff021916908360ff160217905550806060015160016003019080519060200190620000f7929190620002c4565b508060800151600160040160006101000a81548160ff0219169083151502179055508060a00151600160040160016101000a81548160ff021916908315150217905550426001600501819055506103e88160e00151620001589190620007af565b60016006018190555060005b81610100015151811015620002bc5760016007018261010001518281518110620001b7577f4e487b7100000000000000000000000000000000000000000000000000000000600052603260045260246000fd5b60200260200101519080600181540180825580915050600190039060005260206000209060040201600090919091909150600082015181600001908051906020019062000206929190620002c4565b50602082015181600101908051906020019062000225929190620002c4565b50604082015181600201908051906020019062000244929190620002c4565b5060608201518160030155505060006001600701828154811062000291577f4e487b7100000000000000000000000000000000000000000000000000000000600052603260045260246000fd5b9060005260206000209060040201600301819055508080620002b390620008ac565b91505062000164565b505062000a15565b828054620002d29062000840565b90600052602060002090601f016020900481019282620002f6576000855562000342565b82601f106200031157805160ff191683800117855562000342565b8280016001018555821562000342579182015b828111156200034157825182559160200191906001019062000324565b5b50905062000351919062000355565b5090565b5b808211156200037057600081600090555060010162000356565b5090565b60006200038b62000385846200074a565b62000721565b9050808382526020820190508260005b85811015620003cf5781518501620003b48882620005e4565b8452602084019350602083019250506001810190506200039b565b5050509392505050565b6000620003f0620003ea8462000779565b62000721565b9050828152602081018484840111156200040957600080fd5b620004168482856200080a565b509392505050565b600082601f8301126200043057600080fd5b81516200044284826020860162000374565b91505092915050565b6000815190506200045c81620009c7565b92915050565b600082601f8301126200047457600080fd5b815162000486848260208601620003d9565b91505092915050565b60006101208284031215620004a357600080fd5b620004b061012062000721565b9050600082015167ffffffffffffffff811115620004cd57600080fd5b620004db8482850162000462565b600083015250602082015167ffffffffffffffff811115620004fc57600080fd5b6200050a8482850162000462565b60208301525060406200052084828501620006c5565b604083015250606082015167ffffffffffffffff8111156200054157600080fd5b6200054f8482850162000462565b606083015250608062000565848285016200044b565b60808301525060a06200057b848285016200044b565b60a08301525060c06200059184828501620006ae565b60c08301525060e0620005a784828501620006ae565b60e08301525061010082015167ffffffffffffffff811115620005c957600080fd5b620005d7848285016200041e565b6101008301525092915050565b600060808284031215620005f757600080fd5b62000603608062000721565b9050600082015167ffffffffffffffff8111156200062057600080fd5b6200062e8482850162000462565b600083015250602082015167ffffffffffffffff8111156200064f57600080fd5b6200065d8482850162000462565b602083015250604082015167ffffffffffffffff8111156200067e57600080fd5b6200068c8482850162000462565b6040830152506060620006a284828501620006ae565b60608301525092915050565b600081519050620006bf81620009e1565b92915050565b600081519050620006d681620009fb565b92915050565b600060208284031215620006ef57600080fd5b600082015167ffffffffffffffff8111156200070a57600080fd5b62000718848285016200048f565b91505092915050565b60006200072d62000740565b90506200073b828262000876565b919050565b6000604051905090565b600067ffffffffffffffff82111562000768576200076762000987565b5b602082029050602081019050919050565b600067ffffffffffffffff82111562000797576200079662000987565b5b620007a282620009b6565b9050602081019050919050565b6000620007bc82620007f3565b9150620007c983620007f3565b925082620007dc57620007db62000929565b5b828204905092915050565b60008115159050919050565b6000819050919050565b600060ff82169050919050565b60005b838110156200082a5780820151818401526020810190506200080d565b838111156200083a576000848401525b50505050565b600060028204905060018216806200085957607f821691505b6020821081141562000870576200086f62000958565b5b50919050565b6200088182620009b6565b810181811067ffffffffffffffff82111715620008a357620008a262000987565b5b80604052505050565b6000620008b982620007f3565b91507fffffffffffffffffffffffffffffffffffffffffffffffffffffffffffffffff821415620008ef57620008ee620008fa565b5b600182019050919050565b7f4e487b7100000000000000000000000000000000000000000000000000000000600052601160045260246000fd5b7f4e487b7100000000000000000000000000000000000000000000000000000000600052601260045260246000fd5b7f4e487b7100000000000000000000000000000000000000000000000000000000600052602260045260246000fd5b7f4e487b7100000000000000000000000000000000000000000000000000000000600052604160045260246000fd5b6000601f19601f8301169050919050565b620009d281620007e7565b8114620009de57600080fd5b50565b620009ec81620007f3565b8114620009f857600080fd5b50565b62000a0681620007fd565b811462000a1257600080fd5b50565b61141b8062000a256000396000f3fe608060405234801561001057600080fd5b50600436106100625760003560e01c80630242f351146100675780633d7b995c146100855780638da5cb5b146100a1578063bd9f1690146100bf578063f2fde38b146100dd578063fd4f6dae146100f9575b600080fd5b61006f610117565b60405161007c9190611038565b60405180910390f35b61009f600480360381019061009a9190610a2e565b61056e565b005b6100a961078a565b6040516100b69190610fa2565b60405180910390f35b6100c76107ae565b6040516100d49190610fbd565b60405180910390f35b6100f760048036038101906100f29190610a05565b6107ce565b005b61010161091d565b60405161010e9190610fbd565b60405180910390f35b61011f610988565b60016040518061012001604052908160008201805461013d906111d0565b80601f0160208091040260200160405190810160405280929190818152602001828054610169906111d0565b80156101b65780601f1061018b576101008083540402835291602001916101b6565b820191906000526020600020905b81548152906001019060200180831161019957829003601f168201915b505050505081526020016001820180546101cf906111d0565b80601f01602080910402602001604051908101604052809291908181526020018280546101fb906111d0565b80156102485780601f1061021d57610100808354040283529160200191610248565b820191906000526020600020905b81548152906001019060200180831161022b57829003601f168201915b505050505081526020016002820160009054906101000a900460ff1660ff1660ff16815260200160038201805461027e906111d0565b80601f01602080910402602001604051908101604052809291908181526020018280546102aa906111d0565b80156102f75780601f106102cc576101008083540402835291602001916102f7565b820191906000526020600020905b8154815290600101906020018083116102da57829003601f168201915b505050505081526020016004820160009054906101000a900460ff161515151581526020016004820160019054906101000a900460ff16151515158152602001600582015481526020016006820154815260200160078201805480602002602001604051908101604052809291908181526020016000905b8282101561056157838290600052602060002090600402016040518060800160405290816000820180546103a2906111d0565b80601f01602080910402602001604051908101604052809291908181526020018280546103ce906111d0565b801561041b5780601f106103f05761010080835404028352916020019161041b565b820191906000526020600020905b8154815290600101906020018083116103fe57829003601f168201915b50505050508152602001600182018054610434906111d0565b80601f0160208091040260200160405190810160405280929190818152602001828054610460906111d0565b80156104ad5780601f10610482576101008083540402835291602001916104ad565b820191906000526020600020905b81548152906001019060200180831161049057829003601f168201915b505050505081526020016002820180546104c6906111d0565b80601f01602080910402602001604051908101604052809291908181526020018280546104f2906111d0565b801561053f5780601f106105145761010080835404028352916020019161053f565b820191906000526020600020905b81548152906001019060200180831161052257829003601f168201915b505050505081526020016003820154815250508152602001906001019061036f565b5050505081525050905090565b60016007018054905081106105b8576040517f08c379a00000000000000000000000000000000000000000000000000000000081526004016105af90610fd8565b60405180910390fd5b60016006015442106105ff576040517f08c379a00000000000000000000000000000000000000000000000000000000081526004016105f690611018565b60405180910390fd5b60011515600960003373ffffffffffffffffffffffffffffffffffffffff1673ffffffffffffffffffffffffffffffffffffffff16815260200190815260200160002060009054906101000a900460ff1615151415610693576040517f08c379a000000000000000000000000000000000000000000000000000000000815260040161068a90610ff8565b60405180910390fd5b6001600960003373ffffffffffffffffffffffffffffffffffffffff1673ffffffffffffffffffffffffffffffffffffffff16815260200190815260200160002060006101000a81548160ff02191690831515021790555060016007018181548110610728577f4e487b7100000000000000000000000000000000000000000000000000000000600052603260045260246000fd5b9060005260206000209060040201600301600081548092919061074a9061126a565b91905055507f05ce0eed620456cb86d12e80088832d491694e96ccc58908751b4ad7519f57f2600160405161077f919061105a565b60405180910390a150565b60008054906101000a900473ffffffffffffffffffffffffffffffffffffffff1681565b60006001600601544211156107c657600190506107cb565b600090505b90565b60008054906101000a900473ffffffffffffffffffffffffffffffffffffffff1673ffffffffffffffffffffffffffffffffffffffff163373ffffffffffffffffffffffffffffffffffffffff161461082657600080fd5b600073ffffffffffffffffffffffffffffffffffffffff168173ffffffffffffffffffffffffffffffffffffffff16141561086057600080fd5b8073ffffffffffffffffffffffffffffffffffffffff1660008054906101000a900473ffffffffffffffffffffffffffffffffffffffff1673ffffffffffffffffffffffffffffffffffffffff167f8be0079c531659141344cd1fd0a4f28419497f9722a3daafe3b4186f6b6457e060405160405180910390a3806000806101000a81548173ffffffffffffffffffffffffffffffffffffffff021916908373ffffffffffffffffffffffffffffffffffffffff16021790555050565b600060011515600960003373ffffffffffffffffffffffffffffffffffffffff1673ffffffffffffffffffffffffffffffffffffffff16815260200190815260200160002060009054906101000a900460ff161515146109805760009050610985565b600190505b90565b6040518061012001604052806060815260200160608152602001600060ff168152602001606081526020016000151581526020016000151581526020016000815260200160008152602001606081525090565b6000813590506109ea816113b7565b92915050565b6000813590506109ff816113ce565b92915050565b600060208284031215610a1757600080fd5b6000610a25848285016109db565b91505092915050565b600060208284031215610a4057600080fd5b6000610a4e848285016109f0565b91505092915050565b6000610a638383610e98565b905092915050565b6000610a778383610f09565b905092915050565b610a8881611148565b82525050565b6000610a99826110b6565b610aa381856110f1565b935083602082028501610ab58561107c565b8060005b85811015610af15784840389528151610ad28582610a57565b9450610add836110d7565b925060208a01995050600181019050610ab9565b50829750879550505050505092915050565b6000610b0e826110c1565b610b1881856110f1565b935083602082028501610b2a8561108c565b8060005b85811015610b6557848403895281610b468582610a6b565b9450610b51836110e4565b925060208a01995050600181019050610b2e565b50829750879550505050505092915050565b610b808161115a565b82525050565b610b8f8161115a565b82525050565b6000610ba0826110cc565b610baa8185611102565b9350610bba81856020860161119d565b610bc381611311565b840191505092915050565b60008154610bdb816111d0565b610be58186611102565b94506001821660008114610c005760018114610c1257610c45565b60ff1983168652602086019350610c45565b610c1b856110a1565b60005b83811015610c3d57815481890152600182019150602081019050610c1e565b808801955050505b50505092915050565b6000610c5b601383611113565b9150610c668261133c565b602082019050919050565b6000610c7e600d83611113565b9150610c8982611365565b602082019050919050565b6000610ca1600a83611113565b9150610cac8261138e565b602082019050919050565b6000610120830160008301518482036000860152610cd58282610b95565b91505060208301518482036020860152610cef8282610b95565b9150506040830151610d046040860182610f93565b5060608301518482036060860152610d1c8282610b95565b9150506080830151610d316080860182610b77565b5060a0830151610d4460a0860182610b77565b5060c0830151610d5760c0860182610f84565b5060e0830151610d6a60e0860182610f84565b50610100830151848203610100860152610d848282610a8e565b9150508091505092915050565b6000610120830160008084018583036000870152610daf8382610bce565b925050600184018583036020870152610dc88382610bce565b92505060028401549050610ddb81611236565b610de86040870182610f93565b50600384018583036060870152610dff8382610bce565b92505060048401549050610e1281611202565b610e1f6080870182610b77565b50610e2981611250565b610e3660a0870182610b77565b5060058401549050610e478161121c565b610e5460c0870182610f84565b5060068401549050610e658161121c565b610e7260e0870182610f84565b5060078401858303610100870152610e8a8382610b03565b925050819250505092915050565b60006080830160008301518482036000860152610eb58282610b95565b91505060208301518482036020860152610ecf8282610b95565b91505060408301518482036040860152610ee98282610b95565b9150506060830151610efe6060860182610f84565b508091505092915050565b60006080830160008084018583036000870152610f268382610bce565b925050600184018583036020870152610f3f8382610bce565b925050600284018583036040870152610f588382610bce565b92505060038401549050610f6b8161121c565b610f786060870182610f84565b50819250505092915050565b610f8d81611186565b82525050565b610f9c81611190565b82525050565b6000602082019050610fb76000830184610a7f565b92915050565b6000602082019050610fd26000830184610b86565b92915050565b60006020820190508181036000830152610ff181610c4e565b9050919050565b6000602082019050818103600083015261101181610c71565b9050919050565b6000602082019050818103600083015261103181610c94565b9050919050565b600060208201905081810360008301526110528184610cb7565b905092915050565b600060208201905081810360008301526110748184610d91565b905092915050565b6000819050602082019050919050565b60008190508160005260206000209050919050565b60008190508160005260206000209050919050565b600081519050919050565b600081549050919050565b600081519050919050565b6000602082019050919050565b6000600482019050919050565b600082825260208201905092915050565b600082825260208201905092915050565b600082825260208201905092915050565b600060ff82169050919050565b6000819050919050565b600060ff82169050919050565b600061115382611166565b9050919050565b60008115159050919050565b600073ffffffffffffffffffffffffffffffffffffffff82169050919050565b6000819050919050565b600060ff82169050919050565b60005b838110156111bb5780820151818401526020810190506111a0565b838111156111ca576000848401525b50505050565b600060028204905060018216806111e857607f821691505b602082108114156111fc576111fb6112e2565b5b50919050565b600061121561121083611322565b611124565b9050919050565b600061122f61122a83611322565b611131565b9050919050565b600061124961124483611322565b61113b565b9050919050565b600061126361125e8361132f565b611124565b9050919050565b600061127582611186565b91507fffffffffffffffffffffffffffffffffffffffffffffffffffffffffffffffff8214156112a8576112a76112b3565b5b600182019050919050565b7f4e487b7100000000000000000000000000000000000000000000000000000000600052601160045260246000fd5b7f4e487b7100000000000000000000000000000000000000000000000000000000600052602260045260246000fd5b6000601f19601f8301169050919050565b60008160001c9050919050565b60008160081c9050919050565b7f496e646578206e6f7420617661696c61626c6500000000000000000000000000600082015250565b7f416c726561647920766f74656400000000000000000000000000000000000000600082015250565b7f566f746520656e64656400000000000000000000000000000000000000000000600082015250565b6113c081611148565b81146113cb57600080fd5b50565b6113d781611186565b81146113e257600080fd5b5056fea2646970667358221220de7d936ab1b9d600db3e614b950e09987959ab5c549f17f4b5e11c25ad06440064736f6c63430008030033",
  "immutableReferences": {},
  "source": "pragma solidity >=0.7.0 <0.9.0;\r\n\r\nimport \"./Ownable.sol\";\r\n\r\nlibrary MyType {\r\n    struct Data {\r\n        string title;\r\n        string description;\r\n        uint8 voteType;\r\n        string imagePath;\r\n        bool bImageExist;\r\n        bool bShowDetail;\r\n        uint256 createdAt;\r\n        uint256 endedAt;\r\n        Item[] items;\r\n    }\r\n\r\n    struct Item {\r\n        string title;\r\n        string description;\r\n        string imagePath;\r\n        uint256 count;\r\n    }\r\n}\r\n\r\ncontract VoteManager {\r\n    mapping(uint256 => Vote) votes;\r\n    uint256[] voteIds;\r\n\r\n    event VoteCreated(uint256);\r\n\r\n    constructor() {}\r\n\r\n    modifier sizeAvailable(uint256 size) {\r\n        require(size < voteIds.length);\r\n        _;\r\n    }\r\n\r\n    function setVote(MyType.Data memory _data) public {\r\n        uint256 idx = voteIds.length;\r\n        voteIds.push(idx);\r\n        votes[idx] = new Vote(_data);\r\n\r\n        emit VoteCreated(idx);\r\n    }\r\n\r\n    function getVote(uint256 idx)\r\n        public\r\n        view\r\n        sizeAvailable(idx)\r\n        returns (MyType.Data memory)\r\n    {\r\n        return votes[idx].getVote();\r\n    }\r\n\r\n    function voteTo(uint256 idx, uint256 itemId) public sizeAvailable(idx) {\r\n        votes[idx].voteTo(itemId);\r\n    }\r\n\r\n    function isVoteEnd(uint256 idx)\r\n        public\r\n        view\r\n        sizeAvailable(idx)\r\n        returns (bool)\r\n    {\r\n        return votes[idx].isVoteEnd();\r\n    }\r\n\r\n    function isVote(uint256 idx) public view sizeAvailable(idx) returns (bool) {\r\n        return votes[idx].isVote();\r\n    }\r\n}\r\n\r\ncontract Vote is Ownable {\r\n    MyType.Data data;\r\n\r\n    mapping(address => bool) addressIsVote;\r\n\r\n    event VoteSuccess(MyType.Data);\r\n\r\n    constructor(MyType.Data memory _data) public {\r\n        data.title = _data.title;\r\n        data.description = _data.description;\r\n        data.voteType = _data.voteType;\r\n        data.imagePath = _data.imagePath;\r\n        data.bImageExist = _data.bImageExist;\r\n        data.bShowDetail = _data.bShowDetail;\r\n        data.createdAt = block.timestamp;\r\n        data.endedAt = _data.endedAt / 1000;\r\n        for (uint256 i = 0; i < _data.items.length; i++) {\r\n            data.items.push(_data.items[i]);\r\n            data.items[i].count = 0;\r\n        }\r\n    }\r\n\r\n    function voteTo(uint256 itemId) public {\r\n        require(itemId < data.items.length, \"Index not available\");\r\n        require(block.timestamp < data.endedAt, \"Vote ended\");\r\n        require(addressIsVote[msg.sender] != true, \"Already voted\");\r\n        addressIsVote[msg.sender] = true;\r\n\r\n        data.items[itemId].count++;\r\n\r\n        VoteSuccess(data);\r\n    }\r\n\r\n    function isVoteEnd() public view returns (bool) {\r\n        if (block.timestamp > data.endedAt) return true;\r\n        return false;\r\n    }\r\n\r\n    function isVote() public view returns (bool) {\r\n        if (addressIsVote[msg.sender] != true) return false;\r\n        return true;\r\n    }\r\n\r\n    function getVote() public view returns (MyType.Data memory) {\r\n        return data;\r\n    }\r\n}\r\n",
  "sourcePath": "C:/Users/kkiu1/git-prac/blockchain/PJTSUB3/solidity/contracts/Vote.sol",
  "compiler": {
    "name": "solc",
    "version": "0.8.3+commit.8d00100c.Emscripten.clang"
  },
  "schemaVersion": "3.3.4",
  "updatedAt": "2021-04-02T02:11:52.412Z",
  "networkType": "ethereum",
  "devdoc": {
    "kind": "dev",
    "methods": {},
    "version": 1
  },
  "userdoc": {
    "kind": "user",
    "methods": {},
    "version": 1
  }
}